:060000000A128A110C280F
:10000800FE00030EF1000A08F2000A128A1187297D
:100018000A128A110F2883133030FD000230FE00C7
:100028002E30FF00203084000A128A111F220A1283
:100038008A11BA01BB01BC01BD01BE01BF01C001EB
:10004800C101FA0183010A128A113B2983120313A1
:10005800B101F41F302831283828F309F409F30ACC
:100068000319F40AB101B10AF61F3B283C284528B8
:10007800F509F609F50A0319F60A0130F7007708B9
:10008800B106B201B3017308740403194C284D2852
:100098008428B001B00A5B2801300310F30DF40D79
:1000A800FF3E031D51280130F7007708B007F41F01
:1000B8005E285F28502801300310B20DB30DFF3EB3
:1000C800031D602874087602031D6C2873087502E6
:1000D800031C6F28702877287308F5027408031C1E
:1000E800F603F602321401300310F40CF30CFF3E51
:1000F800031D78280130B002031D832884285F2857
:1001080031080319882889288E28B209B309B20A48
:100118000319B30A3308F4003208F3000800F901A0
:10012800F61F972898289F28F509F609F50A031954
:10013800F60AF901F90AF41FA228A328A828F30946
:10014800F409F30A0319F40A730874040319AD28AF
:10015800AE28DD28F801F80ABC2801300310F30D99
:10016800F40DFF3E031DB2280130F7007708F807A9
:10017800F41FBF28C028B12874087602031DC628BA
:1001880073087502031CC928CA28D0287308F50209
:100198007408031CF603F60201300310F40CF30C88
:1001A800FF3E031DD1280130F802031DDC28DD289D
:1001B800C02879080319E128E228E728F509F60993
:1001C800F50A0319F60A7608F4007508F300080022
:1001D8006430F3000030F400831203133508F6008E
:1001E8003408F5000A128A112A200A128A117308A3
:1001F80083120313BF006430F3000030F4003508A5
:10020800F6003408F5000A128A1193200A128A119E
:10021800730883120313C0000A30F3000030F4009F
:100228004008B600B7013608F5003708F6000A128C
:100238008A112A200A128A11730883120313BE0036
:100248000A30F3000030F4004008B600B701360861
:10025800F5003708F6000A128A1193200A128A114B
:10026800730883120313C0004008BD0008000A1277
:100278008A11CD210A128A11831203139F1441088F
:10028800B800B9013808B4003908B5000A128A1153
:10029800EC200A128A11831203133D08203E8400C1
:1002A80083130008BA003E08203E84000008BB0003
:1002B8003F08203E84000008BC009F186429652977
:1002C80043291F0CB800380C0F39003A031D6D295B
:1002D8006E2973291F08C33904389F007529C33054
:1002E8009F051A3083120313B900F730B800B80B12
:1002F8007B29B90B7B298029831203139F14432977
:100308000A128A110C28831203130C1F8C298D29B9
:100318009C291F0CF000700C0F39003A031D952919
:10032800962999291E0886009B291E08C1000C13CE
:100338000B1D9F29A029C6290230890688017A0841
:10034800031DA729A829AE293C0887000814FA012B
:10035800FA0AC3297A03031DB229B329B9293B082C
:10036800870088140230FA00C32902307A06031D78
:10037800BE29BF29C3293A0887000815FA01C830E1
:1003880081000B1172088A00710E8300FE0E7E0E2A
:100398000900831203131F140A128A1106220A1273
:1003A8008A110A128A1151220A128A110A128A1112
:1003B80049220A128A110A128A113E220A128A1145
:1003C8000A128A1162220A128A111A30F400F830CD
:1003D800F300F30BED29F40BED2900000A128A1142
:1003E80058220A128A110A128A115D220A128A11E7
:1003F8000A128A1167220A128A11C830831203135B
:100408008100080003308316031788008901033030
:1004180083160313850086018701880189018312E9
:1004280003138501860187018801890108007E0878
:100438008A007F0882000A128A111B220A128A1176
:100448008000840A04087D0603190034FF0A031992
:10045800FE0A1F2A3F3406345B344F3466346D3449
:100468007D3407347F346F3477347C3439345E34E8
:10047800793471348B168B170B17831603130C17EB
:100488000B11831203130C13080083160313811234
:1004980081110115811401140800831603130F1725
:1004A8008F160F160F140800831603139F121F12BE
:1004B8000800831203139F171F130800C330831209
:0E04C80003139F050800831603139F130800FB
:08400000FF3FFF3FFF3FFF3FC0
:04400E00D420FF3F7C
:00000001FF
