:060000000A128A110C280F
:10000800FE00030EF3000A08F4000A128A111628EB
:100018000A128A110F28F501F601F70183010A1265
:100028008A119328831203130C1F1B281C281F28CE
:100038001E0887000C130B1C222823285528061895
:10004800262827282B28F501F50A0914542886188C
:100058002E282F283228F50109105428061935288A
:1000680036284328F50109100708F6007608F0003D
:1000780077080A128A11B9200A128A115428861997
:10008800462847285428880177080A128A11DB2055
:100098000A128A11F600760883120313880054287E
:1000A8000B1074088A00730E8300FE0E7E0E090082
:1000B800831203131F140A128A11F2200A128A11DA
:1000C8000A128A111E210A128A110A128A1116218D
:1000D8000A128A110A128A1108210A128A110A12AE
:1000E8008A112F210A128A111A3083120313A100D0
:1000F800F730A000A00B7E28A10B7E2883280A12C7
:100108008A1125210A128A110A128A112A210A1231
:100118008A110A128A1134210A128A1108000A1255
:100128008A115C200A128A11831203139F14831206
:1001380003139F18A028A128AF281A30831203138D
:10014800A300F730A200A20BA728A30BA728AC286E
:10015800831203139F147503031DB328B4289B2827
:1001680063009B280A128A110C28F10083160317D2
:100178008C18BF28C028BA287108831203178D006D
:1001880070088C00831603178C130C1500308B1B1A
:100198000130F2008B1355308D00AA308D008C147D
:1001A8000C11720C031C8B1303188B170800F0003A
:1001B800831603178C18E128E228DC280C18E52898
:1001C800E628DC287008831203178D0083160317AE
:1001D8008C130C14831203170C08080001308316C3
:1001E8000317880089010130831603138500FF3047
:1001F800860087018801890183120313850186011E
:1002080087018801890108008316031381137F3051
:1002180096008B170B170C178B150B1083120313F3
:100228000C13080083160313811281110115811420
:1002380001140800831603130F178F160F160F14D7
:100248000800831603139F121F120800831203135A
:100258009F171F130800C330831203139F0508005C
:08026800831603139F13080025
:08400000FF3FFF3FFF3FFF3FC0
:04400E00D420FF3F7C
:00000001FF
