:060000000A128A110C280F
:10000800FE00030EF1000A08F2000A128A11662B9C
:100018000A128A110F2883135130FD000230FE00A6
:10002800DF30FF00203084000A128A11A2230A124E
:100038008A11EE01EF01FA0183010A128A118A2955
:1000480083120313E3005930DE00EB2825306406E1
:1000580003192F2830283A2863088400640883137A
:1000680080000130DB005B08E307EB28DF0101308B
:10007800D807FF30580784000A128A110A210A1289
:100088008A11E400DB00DC015C08003A03194D2802
:10009800EB285B08003A0319FB28643A031958282F
:1000A8000D3A03195828EB285E08840083130008CA
:1000B800E100840A0008E2000230DB005B08DE078A
:1000C800E21F6728682871280330DB005B08DF041B
:1000D800E109E209E10A0319E20AE401E40A640811
:1000E800DB005B07013E84000A128A110A210A120A
:1000F8008A11DC000A128A110A210A128A11DD000B
:100108005D086202031D8A285C08610203188D28B5
:100118008E288F2899280130DB005B08E40705301A
:100128006406031D9828992873285F080339031962
:100138009E289F28A828630884002D3083138000F8
:100148000130DB005B08E3076408E000E2280A30BE
:10015800D4000030D5006008DB005B07013E840056
:100168000A128A110A210A128A11F3000A128A1144
:100178000A210A128A11F4006208F6006108F500E3
:100188000A128A11E7210A128A11740883120313CA
:10019800D7007308D6000A128A116F220A128A1130
:1001A800831203135408303EE40063088400640893
:1001B800831380000130DB005B08E307FF30DB00BE
:1001C8005B08E007600A031DEA28EB28AB2801302A
:1001D800D807FF30580784000A128A110A210A1228
:1001E8008A11E4006408031DFA28FB282A286308FA
:1001F8008400831380010800FF1B0A2983137F18DA
:1002080083170008840A0319FF0A080001308A00CE
:100218000408840A82070034013400340A340034A4
:1002280064340034E8340334103427344E346F34E3
:100238002034653478346934733474346534203444
:1002480065347334613420346F3470346334693402
:100258006F346E342C342034703472346534733413
:1002680069346F346E346534203465346E347434D4
:10027800653472342034703461347234613420341B
:1002880063346F346E34743469346E347534613465
:10029800723420340D34003445346C3420347634D0
:1002A80061346C346F3472342034643465346C34A3
:1002B800203470346F34743465346E346334693484
:1002C8006F346D346534743472346F34203465346B
:1002D80073343A342034003449346E346734723419
:1002E800653473346534203473347534203463349E
:1002F80061347234613463347434653472343A343A
:1003080020340034253464340D3400340A128A1140
:1003180010230A128A110A128A1141230A128A1119
:100328002030F3000030F4000A128A112D220A123C
:100338008A1183120313EF016F080319A429A52951
:10034800A029C4290A128A11AB220A128A11D429B7
:100358000A128A1186230A128A11D4290B30F30053
:100368008030F4000A128A112D220A128A110D30E7
:10037800831203131A06031DC229C329BB29D429D2
:100388006F08EB00EC016C08003A0319CC29B2297C
:100398006B08313A0319A629033A0319AC29B22983
:1003A800023083120313ED000430EC00B930EB0087
:1003B800EB0BDC29EC0BDC29ED0BDC29E329942978
:1003C8000A128A110C2883120313D201D30173086D
:1003D80074040319F029F129282AD101D10AFF2927
:1003E80001300310F30DF40DFF3E031DF529013014
:1003F800F7007708D107F41F022A032AF4290130ED
:100408000310D20DD30DFF3E031D042A7408760293
:10041800031D102A73087502031C132A142A1B2AA9
:100428007308F5027408031CF603F602521401302F
:100438000310F40CF30CFF3E031D1C2A0130D102FB
:10044800031D272A282A032A5308F4005208F30018
:100458000800F801F901522A0C1E332A342A302ADE
:1004680078087307F6007408F5000318F50AF81FF2
:100478003E2AF5037508F700770883120313FF0077
:10048800760884000A128A1100210A128A1199003A
:100498000130F8070318F90A0030F90778087307DC
:1004A800F6007408F5000318F50AF81F5C2AF5032E
:1004B8007508F700770883120313FF007608840095
:1004C8000A128A1100210A128A11003A031D6D2AA4
:1004D8006E2A302A0800831203135408550403199E
:1004E800762A772AA62AF901F90A852A0130031003
:1004F800D40DD50DFF3E031D7B2A0130F800780886
:10050800F907D51F882A892A7A2A55085702031D10
:100518008F2A54085602031C922A932A992A5408AF
:10052800D6025508031CD703D70201300310D50C97
:10053800D40CFF3E031D9A2A0130F902031DA52A97
:10054800A62A892A5708D5005608D40008001A3068
:1005580083120313E600F730E500E50BB12AE60B3A
:10056800B12AB62A831203139F149F18BC2ABD2AE6
:10057800B92A7730D8006E08E500E6016508D90089
:100588006608DA0067300A128A1124200A128A11D2
:100598004130F3008030F4000A128A112D220A1229
:1005A8008A116730F3000030F4000A128A112D22F4
:1005B8000A128A1108000D344D3465346E347534CE
:1005C8003A3420340D342034313429344C346534F1
:1005D80065347234203470346F34743465346E3456
:1005E800633469346F346D346534743472346F3401
:1005F80020340D3420343234293465346E34763462
:100608006934613472342034413473346334693466
:10061800693420340D340034013083160317880000
:100628008901013083160313850086018801890139
:10063800831203138501860188017530831603131D
:100648008F008B170B170C17831203130C131F142F
:10065800C3309F051A30F400F830F300F30B322B47
:10066800F40B322B0000831603139F139F121F12E3
:10067800831203139F171F1308000C3083160313EC
:1006880099009A011811831603178711831203130F
:100698001816831603131812831203139817831658
:1006A800031398168312031318138316031398164B
:1006B800831203130C12831603138C16831203136D
:1006C8008C120800831203138C1E6B2B6C2B6F2B60
:1006D8001A08EF007F2B0C1F722B732B7F2B1F0C1C
:1006E800F000700C0F39003A031D7B2B7C2B7E2BFE
:1006F8001E08EE000C1372088A00710E8300FE0EAD
:100708007E0E09006130F3008030F4000A128A116D
:100718002D220A128A1183120313EF016F0803199D
:10072800962B972B922B6F0886006F0899000D3037
:10073800990008007E088A007F0882000A128A1140
:100748009E230A128A118000840A04087D06031970
:0A0758000034FF0A0319FE0AA22B69
:08400000FF3FFF3FFF3FFF3FC0
:04400E00D420FF3F7C
:00000001FF
