:060000000A128A11122809
:10000800FE00030E83120313C1000408C2000A088D
:10001800C3007F08C4000A128A1113290A128A1120
:10002800152883120313C501C601C701C801C901F8
:10003800CA01CB0183010A128A11C22A831203134F
:10004800AB002130A800FE2825302C0603192D28E6
:100058002E2838282B0884002C08831380000130B0
:10006800A3002308AB07FE28A6014D282808840012
:1000780083130008AC000230A3002308A8072B084C
:1000880084002C08831380000130A3002308AB07E9
:10009800FE280130A007FF30200784000A128A11C9
:1000A80053220A128A11AC00A300A4012408003AC2
:1000B80003195F2843282308003A03190E29633AD5
:1000C80003193A28073A03196D280D3A03196D28C0
:1000D80043282808840083130008A900840A00081C
:1000E800AA000230A3002308A807AA1F7C287D289D
:1000F80086280330A3002308A604A909AA09A90A87
:100108000319AA0AAC01AC0A2C08A3002307013E74
:1001180084000A128A1153220A128A11A4000A12B0
:100128008A1153220A128A11A50025082A02031DE2
:100138009F28240829020318A228A328A428AE2847
:100148000130A3002308AC0705302C06031DAD2899
:10015800AE288828260803390319B328B428BD28EF
:100168002B0884002D30831380000130A30023085E
:10017800AB072C08A700F5280A30F8000030F90072
:100188002708A3002307013E84000A128A1153227C
:100198000A128A11F0000A128A1153220A128A11CD
:1001A800F1002A08F3002908F2000A128A117821BE
:1001B8000A128A117108FB007008FA000A128A11E3
:1001C800BC210A128A117808303E83120313AC004E
:1001D8002B0884002C08831380000130A300230817
:1001E800AB07FF30A3002308A707270A031DFD2834
:1001F800FE28C0280130A007FF30200784000A121B
:100208008A1153220A128A11AC002C08031D0D29E9
:100218000E2928282B0884008313800108008C1ECF
:10022800162917291C290A128A1126220A128A114C
:100238000B1C1F2920296B29831203130618252953
:1002480026292E29061C29292A2926290130C000F9
:10025800400885078618312932293829861C35290E
:10026800362932290130850206193B293C294A29B9
:10027800061D3F2940293C290508C6004130AD002C
:1002880046080A128A11F6210A128A1183120313E8
:1002980086194F2950295E29861D5329542950292A
:1002A8000808C6004430AD0046080A128A11F62133
:1002B8000A128A1183120313061A632964296A2908
:1002C800061E672968296429513099000B1083128A
:1002D80003134408FF0043088A0042088400410EC3
:1002E8008300FE0E7E0E0900F501F6017008710408
:1002F80003197F298029B729F701F70A8E290130C8
:100308000310F00DF10DFF3E031D84290130F400A8
:100318007408F707F11F91299229832901300310E6
:10032800F50DF60DFF3E031D932971087302031D99
:100338009F2970087202031CA229A329AA29700800
:10034800F2027108031CF303F30275140130031061
:10035800F10CF00CFF3E031DAB290130F702031D21
:10036800B629B72992297608F1007508F000080027
:10037800780879040319C129C229F129FD01FD0A68
:10038800D02901300310F80DF90DFF3E031DC629D1
:100398000130FC007C08FD07F91FD329D429C529A1
:1003A80079087B02031DDA2978087A02031CDD2903
:1003B800DE29E4297808FA027908031CFB03FB020A
:1003C80001300310F90CF80CFF3E031DE52901303C
:1003D800FD02031DF029F129D4297B08F9007A08C8
:1003E800F800080083120313BF001D30A0003F0867
:1003F800AE00AF012E08A1002F08A20048300A1253
:100408008A1122200A128A110B3083120313A000CA
:100418002D08AE00AF012E08A1002F08A200303031
:100428000A128A1122200A128A1130300A128A11FD
:100438009E220A128A1148300A128A119E220A1232
:100448008A110800831203138C1E2B2A2C2A262AB1
:100458001A08C7002B304706031D332A342A392AC5
:100468000130F00070088807522A2D304706031D16
:100478003E2A3F2A422A01308802522A3130470652
:10048800031D472A482A4A2A0914522A30304706A7
:10049800031D4F2A502A522A0910522A08000230F6
:1004A8008A000408840A82070034013400340A34BC
:1004B800003464340034E834033410342734763498
:1004C80061346C346F34723420347034753465346C
:1004D800723474346F342034253463343A3420341D
:1004E8000034253464340D3400340C30831603137F
:1004F80099009A01181183160317871183120313A1
:1005080018168316031318128312031398178316E9
:1005180003139816831203131813831603139816DC
:10052800831203130C12831603138C1683120313FE
:100538008C120800F300F101F201B62A83120313AA
:100548000C1EA72AA82AA22A71087307F0007008AF
:1005580084008313000899000130F1070318F20A98
:100568000030F20771087307F000700884008313E5
:100578000008031DC02AC12AA22A08000A128A11EB
:10058800E2220A128A1183120313990183120313B8
:100598008C1ECF2AD02ACA2A063083160313A2003B
:1005A8001330A100AD30A000A00BD82AA10BD82A87
:1005B800A20BD82ACA2A0A128A1112280A128A11E8
:1005C800FC220A128A110A128A1129230A128A1194
:1005D8000A128A1121230A128A110A128A11112376
:1005E8000A128A110A128A1179220A128A1108003B
:1005F8008316031788018901831603138501FF30C9
:100608008600FF3087008801890183120313850162
:100618008601870188018901080083160313811365
:10062800FF309500FF3096008B170B170C178B15B2
:100638000B10831203130C13080083160313811283
:1006480081110115811401140800831603130F1773
:080658008F160F160F140800A5
:08400000FF3FFF3FFF3FFF3FC0
:04400E00D420FF3F7C
:00000001FF
